{"abi":[{"type":"constructor","inputs":[{"name":"entranceFee","type":"uint256","internalType":"uint256"},{"name":"interval","type":"uint256","internalType":"uint256"},{"name":"vrfCoordinator","type":"address","internalType":"address"},{"name":"gasLane","type":"bytes32","internalType":"bytes32"},{"name":"subscriptionId","type":"uint256","internalType":"uint256"},{"name":"callBackGasLimit","type":"uint32","internalType":"uint32"}],"stateMutability":"nonpayable"},{"type":"function","name":"acceptOwnership","inputs":[],"outputs":[],"stateMutability":"nonpayable"},{"type":"function","name":"checkUpkeep","inputs":[{"name":"","type":"bytes","internalType":"bytes"}],"outputs":[{"name":"upKeepNeeded","type":"bool","internalType":"bool"},{"name":"","type":"bytes","internalType":"bytes"}],"stateMutability":"view"},{"type":"function","name":"enterRaffle","inputs":[],"outputs":[],"stateMutability":"payable"},{"type":"function","name":"getEntranceFee","inputs":[],"outputs":[{"name":"","type":"uint256","internalType":"uint256"}],"stateMutability":"view"},{"type":"function","name":"getPlayer","inputs":[{"name":"indexOfPlayer","type":"uint256","internalType":"uint256"}],"outputs":[{"name":"","type":"address","internalType":"address"}],"stateMutability":"view"},{"type":"function","name":"getRaffleState","inputs":[],"outputs":[{"name":"","type":"uint8","internalType":"enum Raffle.raffleState"}],"stateMutability":"view"},{"type":"function","name":"getRecentWinner","inputs":[],"outputs":[{"name":"","type":"address","internalType":"address"}],"stateMutability":"view"},{"type":"function","name":"getlastTimeStamp","inputs":[],"outputs":[{"name":"","type":"uint256","internalType":"uint256"}],"stateMutability":"view"},{"type":"function","name":"owner","inputs":[],"outputs":[{"name":"","type":"address","internalType":"address"}],"stateMutability":"view"},{"type":"function","name":"performUpkeep","inputs":[{"name":"","type":"bytes","internalType":"bytes"}],"outputs":[],"stateMutability":"nonpayable"},{"type":"function","name":"rawFulfillRandomWords","inputs":[{"name":"requestId","type":"uint256","internalType":"uint256"},{"name":"randomWords","type":"uint256[]","internalType":"uint256[]"}],"outputs":[],"stateMutability":"nonpayable"},{"type":"function","name":"s_vrfCoordinator","inputs":[],"outputs":[{"name":"","type":"address","internalType":"contract IVRFCoordinatorV2Plus"}],"stateMutability":"view"},{"type":"function","name":"setCoordinator","inputs":[{"name":"_vrfCoordinator","type":"address","internalType":"address"}],"outputs":[],"stateMutability":"nonpayable"},{"type":"function","name":"transferOwnership","inputs":[{"name":"to","type":"address","internalType":"address"}],"outputs":[],"stateMutability":"nonpayable"},{"type":"event","name":"CoordinatorSet","inputs":[{"name":"vrfCoordinator","type":"address","indexed":false,"internalType":"address"}],"anonymous":false},{"type":"event","name":"OwnershipTransferRequested","inputs":[{"name":"from","type":"address","indexed":true,"internalType":"address"},{"name":"to","type":"address","indexed":true,"internalType":"address"}],"anonymous":false},{"type":"event","name":"OwnershipTransferred","inputs":[{"name":"from","type":"address","indexed":true,"internalType":"address"},{"name":"to","type":"address","indexed":true,"internalType":"address"}],"anonymous":false},{"type":"event","name":"enteredRaffle","inputs":[{"name":"player","type":"address","indexed":true,"internalType":"address"}],"anonymous":false},{"type":"event","name":"requestedRaffleWinner","inputs":[{"name":"requestId","type":"uint256","indexed":true,"internalType":"uint256"}],"anonymous":false},{"type":"event","name":"winnerPicked","inputs":[{"name":"winner","type":"address","indexed":true,"internalType":"address"}],"anonymous":false},{"type":"error","name":"OnlyCoordinatorCanFulfill","inputs":[{"name":"have","type":"address","internalType":"address"},{"name":"want","type":"address","internalType":"address"}]},{"type":"error","name":"OnlyOwnerOrCoordinator","inputs":[{"name":"have","type":"address","internalType":"address"},{"name":"owner","type":"address","internalType":"address"},{"name":"coordinator","type":"address","internalType":"address"}]},{"type":"error","name":"Raffle__Not_Enough_Funds","inputs":[]},{"type":"error","name":"Raffle__Raffle_Not_Open","inputs":[]},{"type":"error","name":"Raffle__TransferFailed","inputs":[]},{"type":"error","name":"Raffle__upkeepNotNeeded","inputs":[{"name":"balance","type":"uint256","internalType":"uint256"},{"name":"numOfPlayers","type":"uint256","internalType":"uint256"},{"name":"raffleState","type":"uint256","internalType":"uint256"}]},{"type":"error","name":"ZeroAddress","inputs":[]}],"bytecode":{"object":"0x6101206040523480156200001257600080fd5b5060405162002476380380620024768339818101604052810190620000389190620004a7565b83338060008073ffffffffffffffffffffffffffffffffffffffff168273ffffffffffffffffffffffffffffffffffffffff1603620000ae576040517f08c379a0000000000000000000000000000000000000000000000000000000008152600401620000a590620005a4565b60405180910390fd5b816000806101000a81548173ffffffffffffffffffffffffffffffffffffffff021916908373ffffffffffffffffffffffffffffffffffffffff160217905550600073ffffffffffffffffffffffffffffffffffffffff168173ffffffffffffffffffffffffffffffffffffffff1614620001355762000134816200025760201b60201c565b5b505050600073ffffffffffffffffffffffffffffffffffffffff168173ffffffffffffffffffffffffffffffffffffffff16036200019f576040517fd92e233d00000000000000000000000000000000000000000000000000000000815260040160405180910390fd5b80600260006101000a81548173ffffffffffffffffffffffffffffffffffffffff021916908373ffffffffffffffffffffffffffffffffffffffff1602179055505085608081815250508460a081815250508260c081815250508160e081815250508063ffffffff166101008163ffffffff1681525050426004819055506000600560146101000a81548160ff02191690836001811115620002465762000245620005c6565b5b021790555050505050505062000667565b3373ffffffffffffffffffffffffffffffffffffffff168173ffffffffffffffffffffffffffffffffffffffff1603620002c8576040517f08c379a0000000000000000000000000000000000000000000000000000000008152600401620002bf9062000645565b60405180910390fd5b80600160006101000a81548173ffffffffffffffffffffffffffffffffffffffff021916908373ffffffffffffffffffffffffffffffffffffffff1602179055508073ffffffffffffffffffffffffffffffffffffffff1660008054906101000a900473ffffffffffffffffffffffffffffffffffffffff1673ffffffffffffffffffffffffffffffffffffffff167fed8889f560326eb138920d842192f0eb3dd22b4f139c87a2c57538e05bae127860405160405180910390a350565b600080fd5b6000819050919050565b620003a0816200038b565b8114620003ac57600080fd5b50565b600081519050620003c08162000395565b92915050565b600073ffffffffffffffffffffffffffffffffffffffff82169050919050565b6000620003f382620003c6565b9050919050565b6200040581620003e6565b81146200041157600080fd5b50565b6000815190506200042581620003fa565b92915050565b6000819050919050565b62000440816200042b565b81146200044c57600080fd5b50565b600081519050620004608162000435565b92915050565b600063ffffffff82169050919050565b620004818162000466565b81146200048d57600080fd5b50565b600081519050620004a18162000476565b92915050565b60008060008060008060c08789031215620004c757620004c662000386565b5b6000620004d789828a01620003af565b9650506020620004ea89828a01620003af565b9550506040620004fd89828a0162000414565b94505060606200051089828a016200044f565b93505060806200052389828a01620003af565b92505060a06200053689828a0162000490565b9150509295509295509295565b600082825260208201905092915050565b7f43616e6e6f7420736574206f776e657220746f207a65726f0000000000000000600082015250565b60006200058c60188362000543565b9150620005998262000554565b602082019050919050565b60006020820190508181036000830152620005bf816200057d565b9050919050565b7f4e487b7100000000000000000000000000000000000000000000000000000000600052602160045260246000fd5b7f43616e6e6f74207472616e7366657220746f2073656c66000000000000000000600082015250565b60006200062d60178362000543565b91506200063a82620005f5565b602082019050919050565b6000602082019050818103600083015262000660816200061e565b9050919050565b60805160a05160c05160e05161010051611dc3620006b360003960006106b2015260006106810152600061065b01526000610810015260008181610328015261042b0152611dc36000f3fe6080604052600436106100dd5760003560e01c806379ba50971161007f5780639eccacf6116100595780639eccacf614610268578063aa58177614610293578063e55ae4e8146102be578063f2fde38b146102fb576100dd565b806379ba5097146101fd5780638da5cb5b146102145780638ea981171461023f576100dd565b80632cfcc539116100bb5780632cfcc539146101615780634585e33b1461016b578063473f1ddc146101945780636e04ff0d146101bf576100dd565b806309bc33a7146100e2578063115cbaf51461010d5780631fe543e314610138575b600080fd5b3480156100ee57600080fd5b506100f7610324565b6040516101049190611283565b60405180910390f35b34801561011957600080fd5b5061012261034c565b60405161012f9190611315565b60405180910390f35b34801561014457600080fd5b5061015f600480360381019061015a91906113d5565b610363565b005b610169610429565b005b34801561017757600080fd5b50610192600480360381019061018d919061148b565b610598565b005b3480156101a057600080fd5b506101a96107de565b6040516101b69190611519565b60405180910390f35b3480156101cb57600080fd5b506101e660048036038101906101e19190611675565b610808565b6040516101f4929190611758565b60405180910390f35b34801561020957600080fd5b506102126108ef565b005b34801561022057600080fd5b50610229610a84565b6040516102369190611519565b60405180910390f35b34801561024b57600080fd5b50610266600480360381019061026191906117b4565b610aad565b005b34801561027457600080fd5b5061027d610c8e565b60405161028a9190611840565b60405180910390f35b34801561029f57600080fd5b506102a8610cb4565b6040516102b59190611283565b60405180910390f35b3480156102ca57600080fd5b506102e560048036038101906102e0919061185b565b610cbe565b6040516102f29190611519565b60405180910390f35b34801561030757600080fd5b50610322600480360381019061031d91906117b4565b610d06565b005b60007f0000000000000000000000000000000000000000000000000000000000000000905090565b6000600560149054906101000a900460ff16905090565b600260009054906101000a900473ffffffffffffffffffffffffffffffffffffffff1673ffffffffffffffffffffffffffffffffffffffff163373ffffffffffffffffffffffffffffffffffffffff16146104195733600260009054906101000a900473ffffffffffffffffffffffffffffffffffffffff166040517f1cf993f4000000000000000000000000000000000000000000000000000000008152600401610410929190611888565b60405180910390fd5b610424838383610d1a565b505050565b7f0000000000000000000000000000000000000000000000000000000000000000341015610483576040517f55156c5e00000000000000000000000000000000000000000000000000000000815260040160405180910390fd5b600060018111156104975761049661129e565b5b600560149054906101000a900460ff1660018111156104b9576104b861129e565b5b146104f0576040517fba35378700000000000000000000000000000000000000000000000000000000815260040160405180910390fd5b6003339080600181540180825580915050600190039060005260206000200160009091909190916101000a81548173ffffffffffffffffffffffffffffffffffffffff021916908373ffffffffffffffffffffffffffffffffffffffff1602179055503373ffffffffffffffffffffffffffffffffffffffff167fd78f827cd914f7521fd97ac8d75e9ab6f080fdcbf7b6cd63e599b59233e6106f60405160405180910390a2565b60006105b260405180602001604052806000815250610808565b509050806106215747600380549050600560149054906101000a900460ff1660018111156105e3576105e261129e565b5b6040517f837325cd000000000000000000000000000000000000000000000000000000008152600401610618939291906118b1565b60405180910390fd5b6001600560146101000a81548160ff021916908360018111156106475761064661129e565b5b021790555060006040518060c001604052807f000000000000000000000000000000000000000000000000000000000000000081526020017f00000000000000000000000000000000000000000000000000000000000000008152602001600361ffff1681526020017f000000000000000000000000000000000000000000000000000000000000000063ffffffff168152602001600163ffffffff168152602001610703604051806020016040528060001515815250610f6f565b81525090506000600260009054906101000a900473ffffffffffffffffffffffffffffffffffffffff1673ffffffffffffffffffffffffffffffffffffffff16639b1c385e836040518263ffffffff1660e01b81526004016107659190611a1f565b6020604051808303816000875af1158015610784573d6000803e3d6000fd5b505050506040513d601f19601f820116820180604052508101906107a89190611a56565b9050807fe0abfa81226f1e2ce09ba287cbb4c241e89b2b891a389274bb7d9c46e344daf060405160405180910390a25050505050565b6000600560009054906101000a900473ffffffffffffffffffffffffffffffffffffffff16905090565b6000606060007f00000000000000000000000000000000000000000000000000000000000000006004544261083d9190611ab2565b11905060008060018111156108555761085461129e565b5b600560149054906101000a900460ff1660018111156108775761087661129e565b5b149050600080471190506000806003805490501190508380156108975750825b80156108a05750815b80156108a95750805b9550856040518060400160405280600381526020017f30783000000000000000000000000000000000000000000000000000000000008152509550955050505050915091565b600160009054906101000a900473ffffffffffffffffffffffffffffffffffffffff1673ffffffffffffffffffffffffffffffffffffffff163373ffffffffffffffffffffffffffffffffffffffff161461097f576040517f08c379a000000000000000000000000000000000000000000000000000000000815260040161097690611b43565b60405180910390fd5b60008060009054906101000a900473ffffffffffffffffffffffffffffffffffffffff169050336000806101000a81548173ffffffffffffffffffffffffffffffffffffffff021916908373ffffffffffffffffffffffffffffffffffffffff1602179055506000600160006101000a81548173ffffffffffffffffffffffffffffffffffffffff021916908373ffffffffffffffffffffffffffffffffffffffff1602179055503373ffffffffffffffffffffffffffffffffffffffff168173ffffffffffffffffffffffffffffffffffffffff167f8be0079c531659141344cd1fd0a4f28419497f9722a3daafe3b4186f6b6457e060405160405180910390a350565b60008060009054906101000a900473ffffffffffffffffffffffffffffffffffffffff16905090565b610ab5610a84565b73ffffffffffffffffffffffffffffffffffffffff163373ffffffffffffffffffffffffffffffffffffffff1614158015610b3e5750600260009054906101000a900473ffffffffffffffffffffffffffffffffffffffff1673ffffffffffffffffffffffffffffffffffffffff163373ffffffffffffffffffffffffffffffffffffffff1614155b15610bad5733610b4c610a84565b600260009054906101000a900473ffffffffffffffffffffffffffffffffffffffff166040517f061db9c1000000000000000000000000000000000000000000000000000000008152600401610ba493929190611b63565b60405180910390fd5b600073ffffffffffffffffffffffffffffffffffffffff168173ffffffffffffffffffffffffffffffffffffffff1603610c13576040517fd92e233d00000000000000000000000000000000000000000000000000000000815260040160405180910390fd5b80600260006101000a81548173ffffffffffffffffffffffffffffffffffffffff021916908373ffffffffffffffffffffffffffffffffffffffff1602179055507fd1a6a14209a385a964d036e404cb5cfb71f4000cdb03c9366292430787261be681604051610c839190611519565b60405180910390a150565b600260009054906101000a900473ffffffffffffffffffffffffffffffffffffffff1681565b6000600454905090565b600060038281548110610cd457610cd3611b9a565b5b9060005260206000200160009054906101000a900473ffffffffffffffffffffffffffffffffffffffff169050919050565b610d0e611007565b610d1781611097565b50565b600060038054905083836000818110610d3657610d35611b9a565b5b90506020020135610d479190611bf8565b9050600060038281548110610d5f57610d5e611b9a565b5b9060005260206000200160009054906101000a900473ffffffffffffffffffffffffffffffffffffffff16905080600560006101000a81548173ffffffffffffffffffffffffffffffffffffffff021916908373ffffffffffffffffffffffffffffffffffffffff160217905550600067ffffffffffffffff811115610de857610de761154a565b5b604051908082528060200260200182016040528015610e165781602001602082028036833780820191505090505b5060039080519060200190610e2c9291906111c3565b50426004819055506000600560146101000a81548160ff02191690836001811115610e5a57610e5961129e565b5b021790555060008173ffffffffffffffffffffffffffffffffffffffff1647604051610e8590611c5a565b60006040518083038185875af1925050503d8060008114610ec2576040519150601f19603f3d011682016040523d82523d6000602084013e610ec7565b606091505b5050905080610f02576040517fa1d04b3900000000000000000000000000000000000000000000000000000000815260040160405180910390fd5b600560009054906101000a900473ffffffffffffffffffffffffffffffffffffffff1673ffffffffffffffffffffffffffffffffffffffff167f794919b0f484b8e90b1b817ac7f880f846fbd8a9813dee2a378e820db094e3d160405160405180910390a2505050505050565b60607f92fd13387c7fe7befbc38d303d6468778fb9731bc4583f17d92989c6fcfdeaaa82604051602401610fa39190611c9a565b604051602081830303815290604052907bffffffffffffffffffffffffffffffffffffffffffffffffffffffff19166020820180517bffffffffffffffffffffffffffffffffffffffffffffffffffffffff83818316178352505050509050919050565b60008054906101000a900473ffffffffffffffffffffffffffffffffffffffff1673ffffffffffffffffffffffffffffffffffffffff163373ffffffffffffffffffffffffffffffffffffffff1614611095576040517f08c379a000000000000000000000000000000000000000000000000000000000815260040161108c90611d01565b60405180910390fd5b565b3373ffffffffffffffffffffffffffffffffffffffff168173ffffffffffffffffffffffffffffffffffffffff1603611105576040517f08c379a00000000000000000000000000000000000000000000000000000000081526004016110fc90611d6d565b60405180910390fd5b80600160006101000a81548173ffffffffffffffffffffffffffffffffffffffff021916908373ffffffffffffffffffffffffffffffffffffffff1602179055508073ffffffffffffffffffffffffffffffffffffffff1660008054906101000a900473ffffffffffffffffffffffffffffffffffffffff1673ffffffffffffffffffffffffffffffffffffffff167fed8889f560326eb138920d842192f0eb3dd22b4f139c87a2c57538e05bae127860405160405180910390a350565b82805482825590600052602060002090810192821561123c579160200282015b8281111561123b5782518260006101000a81548173ffffffffffffffffffffffffffffffffffffffff021916908373ffffffffffffffffffffffffffffffffffffffff160217905550916020019190600101906111e3565b5b509050611249919061124d565b5090565b5b8082111561126657600081600090555060010161124e565b5090565b6000819050919050565b61127d8161126a565b82525050565b60006020820190506112986000830184611274565b92915050565b7f4e487b7100000000000000000000000000000000000000000000000000000000600052602160045260246000fd5b600281106112de576112dd61129e565b5b50565b60008190506112ef826112cd565b919050565b60006112ff826112e1565b9050919050565b61130f816112f4565b82525050565b600060208201905061132a6000830184611306565b92915050565b6000604051905090565b600080fd5b600080fd5b61134d8161126a565b811461135857600080fd5b50565b60008135905061136a81611344565b92915050565b600080fd5b600080fd5b600080fd5b60008083601f84011261139557611394611370565b5b8235905067ffffffffffffffff8111156113b2576113b1611375565b5b6020830191508360208202830111156113ce576113cd61137a565b5b9250929050565b6000806000604084860312156113ee576113ed61133a565b5b60006113fc8682870161135b565b935050602084013567ffffffffffffffff81111561141d5761141c61133f565b5b6114298682870161137f565b92509250509250925092565b60008083601f84011261144b5761144a611370565b5b8235905067ffffffffffffffff81111561146857611467611375565b5b6020830191508360018202830111156114845761148361137a565b5b9250929050565b600080602083850312156114a2576114a161133a565b5b600083013567ffffffffffffffff8111156114c0576114bf61133f565b5b6114cc85828601611435565b92509250509250929050565b600073ffffffffffffffffffffffffffffffffffffffff82169050919050565b6000611503826114d8565b9050919050565b611513816114f8565b82525050565b600060208201905061152e600083018461150a565b92915050565b600080fd5b6000601f19601f8301169050919050565b7f4e487b7100000000000000000000000000000000000000000000000000000000600052604160045260246000fd5b61158282611539565b810181811067ffffffffffffffff821117156115a1576115a061154a565b5b80604052505050565b60006115b4611330565b90506115c08282611579565b919050565b600067ffffffffffffffff8211156115e0576115df61154a565b5b6115e982611539565b9050602081019050919050565b82818337600083830152505050565b6000611618611613846115c5565b6115aa565b90508281526020810184848401111561163457611633611534565b5b61163f8482856115f6565b509392505050565b600082601f83011261165c5761165b611370565b5b813561166c848260208601611605565b91505092915050565b60006020828403121561168b5761168a61133a565b5b600082013567ffffffffffffffff8111156116a9576116a861133f565b5b6116b584828501611647565b91505092915050565b60008115159050919050565b6116d3816116be565b82525050565b600081519050919050565b600082825260208201905092915050565b60005b838110156117135780820151818401526020810190506116f8565b60008484015250505050565b600061172a826116d9565b61173481856116e4565b93506117448185602086016116f5565b61174d81611539565b840191505092915050565b600060408201905061176d60008301856116ca565b818103602083015261177f818461171f565b90509392505050565b611791816114f8565b811461179c57600080fd5b50565b6000813590506117ae81611788565b92915050565b6000602082840312156117ca576117c961133a565b5b60006117d88482850161179f565b91505092915050565b6000819050919050565b60006118066118016117fc846114d8565b6117e1565b6114d8565b9050919050565b6000611818826117eb565b9050919050565b600061182a8261180d565b9050919050565b61183a8161181f565b82525050565b60006020820190506118556000830184611831565b92915050565b6000602082840312156118715761187061133a565b5b600061187f8482850161135b565b91505092915050565b600060408201905061189d600083018561150a565b6118aa602083018461150a565b9392505050565b60006060820190506118c66000830186611274565b6118d36020830185611274565b6118e06040830184611274565b949350505050565b6000819050919050565b6118fb816118e8565b82525050565b61190a8161126a565b82525050565b600061ffff82169050919050565b61192781611910565b82525050565b600063ffffffff82169050919050565b6119468161192d565b82525050565b600082825260208201905092915050565b6000611968826116d9565b611972818561194c565b93506119828185602086016116f5565b61198b81611539565b840191505092915050565b600060c0830160008301516119ae60008601826118f2565b5060208301516119c16020860182611901565b5060408301516119d4604086018261191e565b5060608301516119e7606086018261193d565b5060808301516119fa608086018261193d565b5060a083015184820360a0860152611a12828261195d565b9150508091505092915050565b60006020820190508181036000830152611a398184611996565b905092915050565b600081519050611a5081611344565b92915050565b600060208284031215611a6c57611a6b61133a565b5b6000611a7a84828501611a41565b91505092915050565b7f4e487b7100000000000000000000000000000000000000000000000000000000600052601160045260246000fd5b6000611abd8261126a565b9150611ac88361126a565b9250828203905081811115611ae057611adf611a83565b5b92915050565b600082825260208201905092915050565b7f4d7573742062652070726f706f736564206f776e657200000000000000000000600082015250565b6000611b2d601683611ae6565b9150611b3882611af7565b602082019050919050565b60006020820190508181036000830152611b5c81611b20565b9050919050565b6000606082019050611b78600083018661150a565b611b85602083018561150a565b611b92604083018461150a565b949350505050565b7f4e487b7100000000000000000000000000000000000000000000000000000000600052603260045260246000fd5b7f4e487b7100000000000000000000000000000000000000000000000000000000600052601260045260246000fd5b6000611c038261126a565b9150611c0e8361126a565b925082611c1e57611c1d611bc9565b5b828206905092915050565b600081905092915050565b50565b6000611c44600083611c29565b9150611c4f82611c34565b600082019050919050565b6000611c6582611c37565b9150819050919050565b611c78816116be565b82525050565b602082016000820151611c946000850182611c6f565b50505050565b6000602082019050611caf6000830184611c7e565b92915050565b7f4f6e6c792063616c6c61626c65206279206f776e657200000000000000000000600082015250565b6000611ceb601683611ae6565b9150611cf682611cb5565b602082019050919050565b60006020820190508181036000830152611d1a81611cde565b9050919050565b7f43616e6e6f74207472616e7366657220746f2073656c66000000000000000000600082015250565b6000611d57601783611ae6565b9150611d6282611d21565b602082019050919050565b60006020820190508181036000830152611d8681611d4a565b905091905056fea2646970667358221220958fc7227fd6160a92446bd79950443970cb977dc70a5c2c9779f4b778b64fe264736f6c63430008130033","linkReferences":{}},"methodIdentifiers":{"acceptOwnership()":"79ba5097","checkUpkeep(bytes)":"6e04ff0d","enterRaffle()":"2cfcc539","getEntranceFee()":"09bc33a7","getPlayer(uint256)":"e55ae4e8","getRaffleState()":"115cbaf5","getRecentWinner()":"473f1ddc","getlastTimeStamp()":"aa581776","owner()":"8da5cb5b","performUpkeep(bytes)":"4585e33b","rawFulfillRandomWords(uint256,uint256[])":"1fe543e3","s_vrfCoordinator()":"9eccacf6","setCoordinator(address)":"8ea98117","transferOwnership(address)":"f2fde38b"},"id":44}